{
  "contractName": "Amaclicker",
  "abi": [
    {
      "inputs": [
        {
          "internalType": "contract IERC20",
          "name": "cheemscoin",
          "type": "address"
        }
      ],
      "stateMutability": "nonpayable",
      "type": "constructor"
    },
    {
      "inputs": [],
      "name": "amacoin",
      "outputs": [
        {
          "internalType": "contract Amacoin",
          "name": "",
          "type": "address"
        }
      ],
      "stateMutability": "view",
      "type": "function"
    },
    {
      "inputs": [
        {
          "internalType": "address",
          "name": "",
          "type": "address"
        }
      ],
      "name": "clickRewards",
      "outputs": [
        {
          "internalType": "uint256",
          "name": "",
          "type": "uint256"
        }
      ],
      "stateMutability": "view",
      "type": "function"
    },
    {
      "inputs": [
        {
          "internalType": "uint256",
          "name": "",
          "type": "uint256"
        }
      ],
      "name": "investmentsInfo",
      "outputs": [
        {
          "internalType": "uint256",
          "name": "cost",
          "type": "uint256"
        },
        {
          "internalType": "uint256",
          "name": "reward",
          "type": "uint256"
        },
        {
          "internalType": "uint256",
          "name": "time",
          "type": "uint256"
        }
      ],
      "stateMutability": "view",
      "type": "function"
    },
    {
      "inputs": [
        {
          "internalType": "uint256",
          "name": "",
          "type": "uint256"
        }
      ],
      "name": "skinsInfo",
      "outputs": [
        {
          "internalType": "uint256",
          "name": "",
          "type": "uint256"
        }
      ],
      "stateMutability": "view",
      "type": "function"
    },
    {
      "inputs": [
        {
          "internalType": "uint256",
          "name": "",
          "type": "uint256"
        }
      ],
      "name": "upgradesInfo",
      "outputs": [
        {
          "internalType": "uint256",
          "name": "cost",
          "type": "uint256"
        },
        {
          "internalType": "uint256",
          "name": "boost",
          "type": "uint256"
        }
      ],
      "stateMutability": "view",
      "type": "function"
    },
    {
      "inputs": [],
      "name": "click",
      "outputs": [],
      "stateMutability": "nonpayable",
      "type": "function"
    },
    {
      "inputs": [
        {
          "internalType": "uint256",
          "name": "upgradeIndex",
          "type": "uint256"
        }
      ],
      "name": "buyUpgrade",
      "outputs": [],
      "stateMutability": "nonpayable",
      "type": "function"
    },
    {
      "inputs": [
        {
          "internalType": "uint256",
          "name": "investmentIndex",
          "type": "uint256"
        }
      ],
      "name": "buyInvestment",
      "outputs": [],
      "stateMutability": "nonpayable",
      "type": "function"
    },
    {
      "inputs": [
        {
          "internalType": "uint256",
          "name": "skindex",
          "type": "uint256"
        }
      ],
      "name": "buySkin",
      "outputs": [],
      "stateMutability": "nonpayable",
      "type": "function"
    },
    {
      "inputs": [
        {
          "internalType": "uint256",
          "name": "index",
          "type": "uint256"
        }
      ],
      "name": "redeem",
      "outputs": [],
      "stateMutability": "nonpayable",
      "type": "function"
    }
  ],
  "bytecode": "0x60806040526040518060600160405280600069ffffffffffffffffffff168152602001683635c9adc5dea0000069ffffffffffffffffffff16815260200169021e19e0c9bab240000069ffffffffffffffffffff1681525060079060036200006992919062000367565b503480156200007757600080fd5b5060405162005cc238038062005cc283398181016040528101906200009d91906200042e565b6008309080600181540180825580915050600190039060005260206000200160009091909190916101000a81548173ffffffffffffffffffffffffffffffffffffffff021916908373ffffffffffffffffffffffffffffffffffffffff1602179055506008816040516200011190620003c7565b6200011e92919062000537565b604051809103906000f0801580156200013b573d6000803e3d6000fd5b506000806101000a81548173ffffffffffffffffffffffffffffffffffffffff021916908373ffffffffffffffffffffffffffffffffffffffff160217905550600860006200018b9190620003d5565b60008054906101000a900473ffffffffffffffffffffffffffffffffffffffff1673ffffffffffffffffffffffffffffffffffffffff1663f2fde38b336040518263ffffffff1660e01b8152600401620001e691906200051a565b600060405180830381600087803b1580156200020157600080fd5b505af115801562000216573d6000803e3d6000fd5b50505050600560405180604001604052806801156abf16a40f0000815260200167016345785d8a000081525090806001815401808255809150506001900390600052602060002090600202016000909190919091506000820151816000015560208201518160010155505060056040518060400160405280683635c9adc5dea000008152602001678ac7230489e8000081525090806001815401808255809150506001900390600052602060002090600202016000909190919091506000820151816000015560208201518160010155505060066040518060600160405280678ac7230489e80000815260200168022b1c8c1227a0000081526020016048815250908060018154018082558091505060019003906000526020600020906003020160009091909190915060008201518160000155602082015181600101556040820151816002015550505062000693565b828054828255906000526020600020908101928215620003b4579160200282015b82811115620003b3578251829069ffffffffffffffffffff1690559160200191906001019062000388565b5b509050620003c39190620003f8565b5090565b614357806200196b83390190565b5080546000825590600052602060002090810190620003f59190620003f8565b50565b5b8082111562000413576000816000905550600101620003f9565b5090565b600081519050620004288162000679565b92915050565b6000602082840312156200044157600080fd5b6000620004518482850162000417565b91505092915050565b600062000468838362000474565b60208301905092915050565b6200047f81620005c9565b82525050565b6200049081620005c9565b82525050565b6000620004a38262000580565b620004af818562000598565b9350620004bc836200056b565b8060005b83811015620004fc57620004d48262000657565b620004e088826200045a565b9750620004ed836200058b565b925050600181019050620004c0565b5085935050505092915050565b620005148162000611565b82525050565b600060208201905062000531600083018462000485565b92915050565b6000604082019050818103600083015262000553818562000496565b905062000564602083018462000509565b9392505050565b60008190508160005260206000209050919050565b600081549050919050565b6000600182019050919050565b600082825260208201905092915050565b600073ffffffffffffffffffffffffffffffffffffffff82169050919050565b6000620005d682620005f1565b9050919050565b6000620005ea82620005c9565b9050919050565b600073ffffffffffffffffffffffffffffffffffffffff82169050919050565b60006200061e8262000625565b9050919050565b60006200063282620005f1565b9050919050565b6000620006506200064a836200066c565b620005a9565b9050919050565b600062000665825462000639565b9050919050565b60008160001c9050919050565b6200068481620005dd565b81146200069057600080fd5b50565b6112c880620006a36000396000f3fe608060405234801561001057600080fd5b506004361061009e5760003560e01c80638a3e059a116100665780638a3e059a146101495780639d235de714610179578063a5a2cb1914610195578063b6b7d933146101b1578063db006a75146101e25761009e565b806331629f78146100a35780633eedd49b146100c157806357a1c389146100f35780637ab682631461010f5780637d55923d1461013f575b600080fd5b6100ab6101fe565b6040516100b89190611032565b60405180910390f35b6100db60048036038101906100d69190610eb7565b610222565b6040516100ea939291906110d1565b60405180910390f35b61010d60048036038101906101089190610eb7565b61025c565b005b61012960048036038101906101249190610e8e565b61050d565b604051610136919061108d565b60405180910390f35b610147610525565b005b610163600480360381019061015e9190610eb7565b610606565b604051610170919061108d565b60405180910390f35b610193600480360381019061018e9190610eb7565b61062a565b005b6101af60048036038101906101aa9190610eb7565b61088d565b005b6101cb60048036038101906101c69190610eb7565b610bb4565b6040516101d99291906110a8565b60405180910390f35b6101fc60048036038101906101f79190610eb7565b610be8565b005b60008054906101000a900473ffffffffffffffffffffffffffffffffffffffff1681565b6006818154811061023257600080fd5b90600052602060002090600302016000915090508060000154908060010154908060020154905083565b60068181548110610296577f4e487b7100000000000000000000000000000000000000000000000000000000600052603260045260246000fd5b9060005260206000209060030201600001548060008054906101000a900473ffffffffffffffffffffffffffffffffffffffff1673ffffffffffffffffffffffffffffffffffffffff166370a08231336040518263ffffffff1660e01b81526004016103029190610f9f565b60206040518083038186803b15801561031a57600080fd5b505afa15801561032e573d6000803e3d6000fd5b505050506040513d601f19601f820116820180604052508101906103529190610ee0565b1015610393576040517f08c379a000000000000000000000000000000000000000000000000000000000815260040161038a9061106d565b60405180910390fd5b600360003373ffffffffffffffffffffffffffffffffffffffff1673ffffffffffffffffffffffffffffffffffffffff168152602001908152602001600020604051806040016040528060068581548110610417577f4e487b7100000000000000000000000000000000000000000000000000000000600052603260045260246000fd5b90600052602060002090600302016002015443610434919061112a565b81526020018481525090806001815401808255809150506001900390600052602060002090600202016000909190919091506000820151816000015560208201518160010155505060008054906101000a900473ffffffffffffffffffffffffffffffffffffffff1673ffffffffffffffffffffffffffffffffffffffff1663fc673c4f33836040518363ffffffff1660e01b81526004016104d7929190610fe3565b600060405180830381600087803b1580156104f157600080fd5b505af1158015610505573d6000803e3d6000fd5b505050505050565b60016020528060005260406000206000915090505481565b60008054906101000a900473ffffffffffffffffffffffffffffffffffffffff1673ffffffffffffffffffffffffffffffffffffffff166340c10f1933670de0b6b3a7640000600160003373ffffffffffffffffffffffffffffffffffffffff1673ffffffffffffffffffffffffffffffffffffffff168152602001908152602001600020546105b5919061112a565b6040518363ffffffff1660e01b81526004016105d2929190610fba565b600060405180830381600087803b1580156105ec57600080fd5b505af1158015610600573d6000803e3d6000fd5b50505050565b6007818154811061061657600080fd5b906000526020600020016000915090505481565b60078181548110610664577f4e487b7100000000000000000000000000000000000000000000000000000000600052603260045260246000fd5b90600052602060002001548060008054906101000a900473ffffffffffffffffffffffffffffffffffffffff1673ffffffffffffffffffffffffffffffffffffffff166370a08231336040518263ffffffff1660e01b81526004016106c99190610f9f565b60206040518083038186803b1580156106e157600080fd5b505afa1580156106f5573d6000803e3d6000fd5b505050506040513d601f19601f820116820180604052508101906107199190610ee0565b101561075a576040517f08c379a00000000000000000000000000000000000000000000000000000000081526004016107519061106d565b60405180910390fd5b6001600460003373ffffffffffffffffffffffffffffffffffffffff1673ffffffffffffffffffffffffffffffffffffffff16815260200190815260200160002083815481106107d3577f4e487b7100000000000000000000000000000000000000000000000000000000600052603260045260246000fd5b90600052602060002090602091828204019190066101000a81548160ff02191690831515021790555060008054906101000a900473ffffffffffffffffffffffffffffffffffffffff1673ffffffffffffffffffffffffffffffffffffffff1663fc673c4f33836040518363ffffffff1660e01b8152600401610857929190610fe3565b600060405180830381600087803b15801561087157600080fd5b505af1158015610885573d6000803e3d6000fd5b505050505050565b600581815481106108c7577f4e487b7100000000000000000000000000000000000000000000000000000000600052603260045260246000fd5b9060005260206000209060020201600001548060008054906101000a900473ffffffffffffffffffffffffffffffffffffffff1673ffffffffffffffffffffffffffffffffffffffff166370a08231336040518263ffffffff1660e01b81526004016109339190610f9f565b60206040518083038186803b15801561094b57600080fd5b505afa15801561095f573d6000803e3d6000fd5b505050506040513d601f19601f820116820180604052508101906109839190610ee0565b10156109c4576040517f08c379a00000000000000000000000000000000000000000000000000000000081526004016109bb9061106d565b60405180910390fd5b600060058381548110610a00577f4e487b7100000000000000000000000000000000000000000000000000000000600052603260045260246000fd5b90600052602060002090600202016040518060400160405290816000820154815260200160018201548152505090506001600260003373ffffffffffffffffffffffffffffffffffffffff1673ffffffffffffffffffffffffffffffffffffffff1681526020019081526020016000208481548110610aa8577f4e487b7100000000000000000000000000000000000000000000000000000000600052603260045260246000fd5b906000526020600020016000828254610ac1919061112a565b925050819055508060200151600160003373ffffffffffffffffffffffffffffffffffffffff1673ffffffffffffffffffffffffffffffffffffffff1681526020019081526020016000206000828254610b1b919061112a565b925050819055505060008054906101000a900473ffffffffffffffffffffffffffffffffffffffff1673ffffffffffffffffffffffffffffffffffffffff1663fc673c4f33836040518363ffffffff1660e01b8152600401610b7e929190610fe3565b600060405180830381600087803b158015610b9857600080fd5b505af1158015610bac573d6000803e3d6000fd5b505050505050565b60058181548110610bc457600080fd5b90600052602060002090600202016000915090508060000154908060010154905082565b6000600360003373ffffffffffffffffffffffffffffffffffffffff1673ffffffffffffffffffffffffffffffffffffffff1681526020019081526020016000208281548110610c61577f4e487b7100000000000000000000000000000000000000000000000000000000600052603260045260246000fd5b90600052602060002090600202016040518060400160405290816000820154815260200160018201548152505090508060000151431015610cd7576040517f08c379a0000000000000000000000000000000000000000000000000000000008152600401610cce9061104d565b60405180910390fd5b60008054906101000a900473ffffffffffffffffffffffffffffffffffffffff1673ffffffffffffffffffffffffffffffffffffffff166340c10f19336006846020015181548110610d52577f4e487b7100000000000000000000000000000000000000000000000000000000600052603260045260246000fd5b9060005260206000209060030201600101546040518363ffffffff1660e01b8152600401610d81929190610fba565b600060405180830381600087803b158015610d9b57600080fd5b505af1158015610daf573d6000803e3d6000fd5b50505050600360003373ffffffffffffffffffffffffffffffffffffffff1673ffffffffffffffffffffffffffffffffffffffff1681526020019081526020016000208281548110610e2a577f4e487b7100000000000000000000000000000000000000000000000000000000600052603260045260246000fd5b9060005260206000209060020201600080820160009055600182016000905550505050565b600081359050610e5e81611264565b92915050565b600081359050610e738161127b565b92915050565b600081519050610e888161127b565b92915050565b600060208284031215610ea057600080fd5b6000610eae84828501610e4f565b91505092915050565b600060208284031215610ec957600080fd5b6000610ed784828501610e64565b91505092915050565b600060208284031215610ef257600080fd5b6000610f0084828501610e79565b91505092915050565b610f1281611180565b82525050565b610f21816111bc565b82525050565b6000610f34601683611119565b9150610f3f8261120f565b602082019050919050565b6000610f57600083611108565b9150610f6282611238565b600082019050919050565b6000610f7a601383611119565b9150610f858261123b565b602082019050919050565b610f99816111b2565b82525050565b6000602082019050610fb46000830184610f09565b92915050565b6000604082019050610fcf6000830185610f09565b610fdc6020830184610f90565b9392505050565b6000608082019050610ff86000830185610f09565b6110056020830184610f90565b818103604083015261101681610f4a565b9050818103606083015261102981610f4a565b90509392505050565b60006020820190506110476000830184610f18565b92915050565b6000602082019050818103600083015261106681610f27565b9050919050565b6000602082019050818103600083015261108681610f6d565b9050919050565b60006020820190506110a26000830184610f90565b92915050565b60006040820190506110bd6000830185610f90565b6110ca6020830184610f90565b9392505050565b60006060820190506110e66000830186610f90565b6110f36020830185610f90565b6111006040830184610f90565b949350505050565b600082825260208201905092915050565b600082825260208201905092915050565b6000611135826111b2565b9150611140836111b2565b9250827fffffffffffffffffffffffffffffffffffffffffffffffffffffffffffffffff03821115611175576111746111e0565b5b828201905092915050565b600061118b82611192565b9050919050565b600073ffffffffffffffffffffffffffffffffffffffff82169050919050565b6000819050919050565b60006111c7826111ce565b9050919050565b60006111d982611192565b9050919050565b7f4e487b7100000000000000000000000000000000000000000000000000000000600052601160045260246000fd5b7f496e766573746d656e74206e6f74206d61747572656400000000000000000000600082015250565b50565b7f4e6f7420656e6f75676820616d61636f696e7300000000000000000000000000600082015250565b61126d81611180565b811461127857600080fd5b50565b611284816111b2565b811461128f57600080fd5b5056fea2646970667358221220dd8c49ac08ba982789cf33a849041de959efe6d040a493cac0eff613c3ff3d7264736f6c634300080300336080604052670de0b6b3a7640000600c553480156200001d57600080fd5b50604051620043573803806200435783398181016040528101906200004391906200069d565b6040518060400160405280600c81526020017f4265746120416d61636f696e00000000000000000000000000000000000000008152506040518060400160405280600581526020017f62414d4143000000000000000000000000000000000000000000000000000000815250838260029080519060200190620000c89291906200048e565b508160039080519060200190620000e19291906200048e565b508060049080519060200190620000fa9291906200051f565b5060005b8151811015620001b75760016005600084848151811062000148577f4e487b7100000000000000000000000000000000000000000000000000000000600052603260045260246000fd5b602002602001015173ffffffffffffffffffffffffffffffffffffffff1673ffffffffffffffffffffffffffffffffffffffff16815260200190815260200160002060006101000a81548160ff0219169083151502179055508080620001ae9062000876565b915050620000fe565b50731820a4b7618bde71dce8cdc73aab6c95905fad2473ffffffffffffffffffffffffffffffffffffffff166329965a1d307fac7fbab5f54a3ca8194167523c6753bfeb96a445279294b6125b68cce2177054306040518463ffffffff1660e01b81526004016200022b9392919062000719565b600060405180830381600087803b1580156200024657600080fd5b505af11580156200025b573d6000803e3d6000fd5b50505050731820a4b7618bde71dce8cdc73aab6c95905fad2473ffffffffffffffffffffffffffffffffffffffff166329965a1d307faea199e31a596269b42cdafd93407f14436db6e4cad65417994c2eb37381e05a306040518463ffffffff1660e01b8152600401620002d29392919062000719565b600060405180830381600087803b158015620002ed57600080fd5b505af115801562000302573d6000803e3d6000fd5b5050505050505060006200031b6200048660201b60201c565b905080600960006101000a81548173ffffffffffffffffffffffffffffffffffffffff021916908373ffffffffffffffffffffffffffffffffffffffff1602179055508073ffffffffffffffffffffffffffffffffffffffff16600073ffffffffffffffffffffffffffffffffffffffff167f8be0079c531659141344cd1fd0a4f28419497f9722a3daafe3b4186f6b6457e060405160405180910390a35081600081518110620003f5577f4e487b7100000000000000000000000000000000000000000000000000000000600052603260045260246000fd5b6020026020010151600a60006101000a81548173ffffffffffffffffffffffffffffffffffffffff021916908373ffffffffffffffffffffffffffffffffffffffff16021790555080600b60006101000a81548173ffffffffffffffffffffffffffffffffffffffff021916908373ffffffffffffffffffffffffffffffffffffffff160217905550505062000996565b600033905090565b8280546200049c906200080a565b90600052602060002090601f016020900481019282620004c057600085556200050c565b82601f10620004db57805160ff19168380011785556200050c565b828001600101855582156200050c579182015b828111156200050b578251825591602001919060010190620004ee565b5b5090506200051b9190620005ae565b5090565b8280548282559060005260206000209081019282156200059b579160200282015b828111156200059a5782518260006101000a81548173ffffffffffffffffffffffffffffffffffffffff021916908373ffffffffffffffffffffffffffffffffffffffff1602179055509160200191906001019062000540565b5b509050620005aa9190620005ae565b5090565b5b80821115620005c9576000816000905550600101620005af565b5090565b6000620005e4620005de846200077f565b62000756565b905080838252602082019050828560208602820111156200060457600080fd5b60005b858110156200063857816200061d888262000642565b84526020840193506020830192505060018101905062000607565b5050509392505050565b600081519050620006538162000962565b92915050565b600082601f8301126200066b57600080fd5b81516200067d848260208601620005cd565b91505092915050565b60008151905062000697816200097c565b92915050565b60008060408385031215620006b157600080fd5b600083015167ffffffffffffffff811115620006cc57600080fd5b620006da8582860162000659565b9250506020620006ed8582860162000686565b9150509250929050565b6200070281620007ae565b82525050565b6200071381620007c2565b82525050565b6000606082019050620007306000830186620006f7565b6200073f602083018562000708565b6200074e6040830184620006f7565b949350505050565b60006200076262000775565b905062000770828262000840565b919050565b6000604051905090565b600067ffffffffffffffff8211156200079d576200079c62000922565b5b602082029050602081019050919050565b6000620007bb82620007e0565b9050919050565b6000819050919050565b6000620007d982620007ae565b9050919050565b600073ffffffffffffffffffffffffffffffffffffffff82169050919050565b6000819050919050565b600060028204905060018216806200082357607f821691505b602082108114156200083a5762000839620008f3565b5b50919050565b6200084b8262000951565b810181811067ffffffffffffffff821117156200086d576200086c62000922565b5b80604052505050565b6000620008838262000800565b91507fffffffffffffffffffffffffffffffffffffffffffffffffffffffffffffffff821415620008b957620008b8620008c4565b5b600182019050919050565b7f4e487b7100000000000000000000000000000000000000000000000000000000600052601160045260246000fd5b7f4e487b7100000000000000000000000000000000000000000000000000000000600052602260045260246000fd5b7f4e487b7100000000000000000000000000000000000000000000000000000000600052604160045260246000fd5b6000601f19601f8301169050919050565b6200096d81620007ae565b81146200097957600080fd5b50565b6200098781620007cc565b81146200099357600080fd5b50565b6139b180620009a66000396000f3fe608060405234801561001057600080fd5b506004361061018e5760003560e01c80638da5cb5b116100de578063d95b637111610097578063f2fde38b11610071578063f2fde38b14610473578063fad8b32a1461048f578063fc673c4f146104ab578063fe9d9303146104c75761018e565b8063d95b6371146103f7578063dd62ed3e14610427578063e11279d5146104575761018e565b80638da5cb5b1461033557806390bc225014610353578063959b8c3f1461037157806395d89b411461038d5780639bd9bbc6146103ab578063a9059cbb146103c75761018e565b806340c10f191161014b57806362ad1b831161012557806362ad1b83146102c357806368e65d09146102df57806370a08231146102fb578063715018a61461032b5761018e565b806340c10f191461026b578063556f0dc7146102875780635c97fd3b146102a55761018e565b806306e485381461019357806306fdde03146101b1578063095ea7b3146101cf57806318160ddd146101ff57806323b872dd1461021d578063313ce5671461024d575b600080fd5b61019b6104e3565b6040516101a89190612db5565b60405180910390f35b6101b9610571565b6040516101c69190612df2565b60405180910390f35b6101e960048036038101906101e4919061274b565b610603565b6040516101f69190612dd7565b60405180910390f35b610207610626565b6040516102149190613074565b60405180910390f35b61023760048036038101906102329190612655565b610630565b6040516102449190612dd7565b60405180910390f35b61025561088a565b60405161026291906130d4565b60405180910390f35b6102856004803603810190610280919061274b565b610893565b005b61028f610a3f565b60405161029c9190613074565b60405180910390f35b6102ad610a48565b6040516102ba9190612d02565b60405180910390f35b6102dd60048036038101906102d891906126a4565b610a6e565b005b6102f960048036038101906102f491906125c7565b610ad4565b005b610315600480360381019061031091906125c7565b610b94565b6040516103229190613074565b60405180910390f35b610333610bdc565b005b61033d610d19565b60405161034a9190612d02565b60405180910390f35b61035b610d43565b6040516103689190613074565b60405180910390f35b61038b600480360381019061038691906125c7565b610d49565b005b610395610faa565b6040516103a29190612df2565b60405180910390f35b6103c560048036038101906103c09190612787565b61103c565b005b6103e160048036038101906103dc919061274b565b611066565b6040516103ee9190612dd7565b60405180910390f35b610411600480360381019061040c9190612619565b611174565b60405161041e9190612dd7565b60405180910390f35b610441600480360381019061043c9190612619565b611325565b60405161044e9190613074565b60405180910390f35b610471600480360381019061046c9190612881565b6113ac565b005b61048d600480360381019061048891906125c7565b6113b6565b005b6104a960048036038101906104a491906125c7565b611562565b005b6104c560048036038101906104c091906127ee565b6117c3565b005b6104e160048036038101906104dc91906128d3565b611825565b005b6060600480548060200260200160405190810160405280929190818152602001828054801561056757602002820191906000526020600020905b8160009054906101000a900473ffffffffffffffffffffffffffffffffffffffff1673ffffffffffffffffffffffffffffffffffffffff168152602001906001019080831161051d575b5050505050905090565b606060028054610580906132e1565b80601f01602080910402602001604051908101604052809291908181526020018280546105ac906132e1565b80156105f95780601f106105ce576101008083540402835291602001916105f9565b820191906000526020600020905b8154815290600101906020018083116105dc57829003601f168201915b5050505050905090565b60008061060e61184b565b905061061b818585611853565b600191505092915050565b6000600154905090565b60008073ffffffffffffffffffffffffffffffffffffffff168373ffffffffffffffffffffffffffffffffffffffff1614156106a1576040517f08c379a000000000000000000000000000000000000000000000000000000000815260040161069890612f94565b60405180910390fd5b600073ffffffffffffffffffffffffffffffffffffffff168473ffffffffffffffffffffffffffffffffffffffff161415610711576040517f08c379a000000000000000000000000000000000000000000000000000000000815260040161070890612ff4565b60405180910390fd5b600061071b61184b565b9050610749818686866040518060200160405280600081525060405180602001604052806000815250611a1e565b610775818686866040518060200160405280600081525060405180602001604052806000815250611b94565b6000600860008773ffffffffffffffffffffffffffffffffffffffff1673ffffffffffffffffffffffffffffffffffffffff16815260200190815260200160002060008373ffffffffffffffffffffffffffffffffffffffff1673ffffffffffffffffffffffffffffffffffffffff16815260200190815260200160002054905083811015610839576040517f08c379a000000000000000000000000000000000000000000000000000000000815260040161083090612fd4565b60405180910390fd5b61084f8683868461084a919061320c565b611853565b61087d8287878760405180602001604052806000815250604051806020016040528060008152506000611db7565b6001925050509392505050565b60006012905090565b600a60009054906101000a900473ffffffffffffffffffffffffffffffffffffffff1673ffffffffffffffffffffffffffffffffffffffff163373ffffffffffffffffffffffffffffffffffffffff1614610923576040517f08c379a000000000000000000000000000000000000000000000000000000000815260040161091a90612f34565b60405180910390fd5b600c54600b60009054906101000a900473ffffffffffffffffffffffffffffffffffffffff1673ffffffffffffffffffffffffffffffffffffffff166370a08231336040518263ffffffff1660e01b81526004016109819190612d02565b60206040518083038186803b15801561099957600080fd5b505afa1580156109ad573d6000803e3d6000fd5b505050506040513d601f19601f820116820180604052508101906109d191906128aa565b11610a11576040517f08c379a0000000000000000000000000000000000000000000000000000000008152600401610a0890612e14565b60405180910390fd5b610a3b82826040518060200160405280600081525060405180602001604052806000815250611f98565b5050565b60006001905090565b600a60009054906101000a900473ffffffffffffffffffffffffffffffffffffffff1681565b610a7f610a7961184b565b86611174565b610abe576040517f08c379a0000000000000000000000000000000000000000000000000000000008152600401610ab590612fb4565b60405180910390fd5b610acd85858585856001612176565b5050505050565b610adc61184b565b73ffffffffffffffffffffffffffffffffffffffff16610afa610d19565b73ffffffffffffffffffffffffffffffffffffffff1614610b50576040517f08c379a0000000000000000000000000000000000000000000000000000000008152600401610b4790612f54565b60405180910390fd5b80600a60006101000a81548173ffffffffffffffffffffffffffffffffffffffff021916908373ffffffffffffffffffffffffffffffffffffffff16021790555050565b60008060008373ffffffffffffffffffffffffffffffffffffffff1673ffffffffffffffffffffffffffffffffffffffff168152602001908152602001600020549050919050565b610be461184b565b73ffffffffffffffffffffffffffffffffffffffff16610c02610d19565b73ffffffffffffffffffffffffffffffffffffffff1614610c58576040517f08c379a0000000000000000000000000000000000000000000000000000000008152600401610c4f90612f54565b60405180910390fd5b600073ffffffffffffffffffffffffffffffffffffffff16600960009054906101000a900473ffffffffffffffffffffffffffffffffffffffff1673ffffffffffffffffffffffffffffffffffffffff167f8be0079c531659141344cd1fd0a4f28419497f9722a3daafe3b4186f6b6457e060405160405180910390a36000600960006101000a81548173ffffffffffffffffffffffffffffffffffffffff021916908373ffffffffffffffffffffffffffffffffffffffff160217905550565b6000600960009054906101000a900473ffffffffffffffffffffffffffffffffffffffff16905090565b600c5481565b8073ffffffffffffffffffffffffffffffffffffffff16610d6861184b565b73ffffffffffffffffffffffffffffffffffffffff161415610dbf576040517f08c379a0000000000000000000000000000000000000000000000000000000008152600401610db690612ed4565b60405180910390fd5b600560008273ffffffffffffffffffffffffffffffffffffffff1673ffffffffffffffffffffffffffffffffffffffff16815260200190815260200160002060009054906101000a900460ff1615610ea95760076000610e1d61184b565b73ffffffffffffffffffffffffffffffffffffffff1673ffffffffffffffffffffffffffffffffffffffff16815260200190815260200160002060008273ffffffffffffffffffffffffffffffffffffffff1673ffffffffffffffffffffffffffffffffffffffff16815260200190815260200160002060006101000a81549060ff0219169055610f46565b600160066000610eb761184b565b73ffffffffffffffffffffffffffffffffffffffff1673ffffffffffffffffffffffffffffffffffffffff16815260200190815260200160002060008373ffffffffffffffffffffffffffffffffffffffff1673ffffffffffffffffffffffffffffffffffffffff16815260200190815260200160002060006101000a81548160ff0219169083151502179055505b610f4e61184b565b73ffffffffffffffffffffffffffffffffffffffff168173ffffffffffffffffffffffffffffffffffffffff167ff4caeb2d6ca8932a215a353d0703c326ec2d81fc68170f320eb2ab49e9df61f960405160405180910390a350565b606060038054610fb9906132e1565b80601f0160208091040260200160405190810160405280929190818152602001828054610fe5906132e1565b80156110325780601f1061100757610100808354040283529160200191611032565b820191906000526020600020905b81548152906001019060200180831161101557829003601f168201915b5050505050905090565b61106161104761184b565b848484604051806020016040528060008152506001612176565b505050565b60008073ffffffffffffffffffffffffffffffffffffffff168373ffffffffffffffffffffffffffffffffffffffff1614156110d7576040517f08c379a00000000000000000000000000000000000000000000000000000000081526004016110ce90612f94565b60405180910390fd5b60006110e161184b565b905061110f818286866040518060200160405280600081525060405180602001604052806000815250611a1e565b61113b818286866040518060200160405280600081525060405180602001604052806000815250611b94565b6111698182868660405180602001604052806000815250604051806020016040528060008152506000611db7565b600191505092915050565b60008173ffffffffffffffffffffffffffffffffffffffff168373ffffffffffffffffffffffffffffffffffffffff16148061128c5750600560008473ffffffffffffffffffffffffffffffffffffffff1673ffffffffffffffffffffffffffffffffffffffff16815260200190815260200160002060009054906101000a900460ff16801561128b5750600760008373ffffffffffffffffffffffffffffffffffffffff1673ffffffffffffffffffffffffffffffffffffffff16815260200190815260200160002060008473ffffffffffffffffffffffffffffffffffffffff1673ffffffffffffffffffffffffffffffffffffffff16815260200190815260200160002060009054906101000a900460ff16155b5b8061131d5750600660008373ffffffffffffffffffffffffffffffffffffffff1673ffffffffffffffffffffffffffffffffffffffff16815260200190815260200160002060008473ffffffffffffffffffffffffffffffffffffffff1673ffffffffffffffffffffffffffffffffffffffff16815260200190815260200160002060009054906101000a900460ff165b905092915050565b6000600860008473ffffffffffffffffffffffffffffffffffffffff1673ffffffffffffffffffffffffffffffffffffffff16815260200190815260200160002060008373ffffffffffffffffffffffffffffffffffffffff1673ffffffffffffffffffffffffffffffffffffffff16815260200190815260200160002054905092915050565b80600c8190555050565b6113be61184b565b73ffffffffffffffffffffffffffffffffffffffff166113dc610d19565b73ffffffffffffffffffffffffffffffffffffffff1614611432576040517f08c379a000000000000000000000000000000000000000000000000000000000815260040161142990612f54565b60405180910390fd5b600073ffffffffffffffffffffffffffffffffffffffff168173ffffffffffffffffffffffffffffffffffffffff1614156114a2576040517f08c379a000000000000000000000000000000000000000000000000000000000815260040161149990612e94565b60405180910390fd5b8073ffffffffffffffffffffffffffffffffffffffff16600960009054906101000a900473ffffffffffffffffffffffffffffffffffffffff1673ffffffffffffffffffffffffffffffffffffffff167f8be0079c531659141344cd1fd0a4f28419497f9722a3daafe3b4186f6b6457e060405160405180910390a380600960006101000a81548173ffffffffffffffffffffffffffffffffffffffff021916908373ffffffffffffffffffffffffffffffffffffffff16021790555050565b61156a61184b565b73ffffffffffffffffffffffffffffffffffffffff168173ffffffffffffffffffffffffffffffffffffffff1614156115d8576040517f08c379a00000000000000000000000000000000000000000000000000000000081526004016115cf90612ef4565b60405180910390fd5b600560008273ffffffffffffffffffffffffffffffffffffffff1673ffffffffffffffffffffffffffffffffffffffff16815260200190815260200160002060009054906101000a900460ff16156116cb5760016007600061163861184b565b73ffffffffffffffffffffffffffffffffffffffff1673ffffffffffffffffffffffffffffffffffffffff16815260200190815260200160002060008373ffffffffffffffffffffffffffffffffffffffff1673ffffffffffffffffffffffffffffffffffffffff16815260200190815260200160002060006101000a81548160ff02191690831515021790555061175f565b600660006116d761184b565b73ffffffffffffffffffffffffffffffffffffffff1673ffffffffffffffffffffffffffffffffffffffff16815260200190815260200160002060008273ffffffffffffffffffffffffffffffffffffffff1673ffffffffffffffffffffffffffffffffffffffff16815260200190815260200160002060006101000a81549060ff02191690555b61176761184b565b73ffffffffffffffffffffffffffffffffffffffff168173ffffffffffffffffffffffffffffffffffffffff167f50546e66e5f44d728365dc3908c63bc5cfeeab470722c1677e3073a6ac294aa160405160405180910390a350565b6117d46117ce61184b565b85611174565b611813576040517f08c379a000000000000000000000000000000000000000000000000000000000815260040161180a90612fb4565b60405180910390fd5b61181f84848484612296565b50505050565b61184761183061184b565b838360405180602001604052806000815250612296565b5050565b600033905090565b600073ffffffffffffffffffffffffffffffffffffffff168373ffffffffffffffffffffffffffffffffffffffff1614156118c3576040517f08c379a00000000000000000000000000000000000000000000000000000000081526004016118ba90612e34565b60405180910390fd5b600073ffffffffffffffffffffffffffffffffffffffff168273ffffffffffffffffffffffffffffffffffffffff161415611933576040517f08c379a000000000000000000000000000000000000000000000000000000000815260040161192a90613054565b60405180910390fd5b80600860008573ffffffffffffffffffffffffffffffffffffffff1673ffffffffffffffffffffffffffffffffffffffff16815260200190815260200160002060008473ffffffffffffffffffffffffffffffffffffffff1673ffffffffffffffffffffffffffffffffffffffff168152602001908152602001600020819055508173ffffffffffffffffffffffffffffffffffffffff168373ffffffffffffffffffffffffffffffffffffffff167f8c5be1e5ebec7d5bd14f71427d1e84f3dd0314c0f7b2291e5b200ac8c7c3b92583604051611a119190613074565b60405180910390a3505050565b6000731820a4b7618bde71dce8cdc73aab6c95905fad2473ffffffffffffffffffffffffffffffffffffffff1663aabbb8ca877f29ddb589b1fb5fc7cf394961c1adf5f8c6454761adf795e67fe149f658abe8956040518363ffffffff1660e01b8152600401611a8f929190612d8c565b60206040518083038186803b158015611aa757600080fd5b505afa158015611abb573d6000803e3d6000fd5b505050506040513d601f19601f82011682018060405250810190611adf91906125f0565b9050600073ffffffffffffffffffffffffffffffffffffffff168173ffffffffffffffffffffffffffffffffffffffff1614611b8b578073ffffffffffffffffffffffffffffffffffffffff166375ab97828888888888886040518763ffffffff1660e01b8152600401611b5896959493929190612d1d565b600060405180830381600087803b158015611b7257600080fd5b505af1158015611b86573d6000803e3d6000fd5b505050505b50505050505050565b611ba0868686866124f2565b60008060008773ffffffffffffffffffffffffffffffffffffffff1673ffffffffffffffffffffffffffffffffffffffff16815260200190815260200160002054905083811015611c26576040517f08c379a0000000000000000000000000000000000000000000000000000000008152600401611c1d90612e74565b60405180910390fd5b8381611c32919061320c565b6000808873ffffffffffffffffffffffffffffffffffffffff1673ffffffffffffffffffffffffffffffffffffffff16815260200190815260200160002081905550836000808773ffffffffffffffffffffffffffffffffffffffff1673ffffffffffffffffffffffffffffffffffffffff1681526020019081526020016000206000828254611cc291906131b6565b925050819055508473ffffffffffffffffffffffffffffffffffffffff168673ffffffffffffffffffffffffffffffffffffffff168873ffffffffffffffffffffffffffffffffffffffff167f06b541ddaa720db2b10a4d0cdac39b8d360425fc073085fac19bc82614677987878787604051611d419392919061308f565b60405180910390a48473ffffffffffffffffffffffffffffffffffffffff168673ffffffffffffffffffffffffffffffffffffffff167fddf252ad1be2c89b69c2b068fc378daa952ba7f163c4a11628f55a4df523b3ef86604051611da69190613074565b60405180910390a350505050505050565b6000731820a4b7618bde71dce8cdc73aab6c95905fad2473ffffffffffffffffffffffffffffffffffffffff1663aabbb8ca877fb281fc8c12954d22544db45de3159a39272895b169a852b314f9cc762e44c53b6040518363ffffffff1660e01b8152600401611e28929190612d8c565b60206040518083038186803b158015611e4057600080fd5b505afa158015611e54573d6000803e3d6000fd5b505050506040513d601f19601f82011682018060405250810190611e7891906125f0565b9050600073ffffffffffffffffffffffffffffffffffffffff168173ffffffffffffffffffffffffffffffffffffffff1614611f27578073ffffffffffffffffffffffffffffffffffffffff166223de298989898989896040518763ffffffff1660e01b8152600401611ef096959493929190612d1d565b600060405180830381600087803b158015611f0a57600080fd5b505af1158015611f1e573d6000803e3d6000fd5b50505050611f8e565b8115611f8d57611f4c8673ffffffffffffffffffffffffffffffffffffffff166124f8565b15611f8c576040517f08c379a0000000000000000000000000000000000000000000000000000000008152600401611f8390612f74565b60405180910390fd5b5b5b5050505050505050565b600073ffffffffffffffffffffffffffffffffffffffff168473ffffffffffffffffffffffffffffffffffffffff161415612008576040517f08c379a0000000000000000000000000000000000000000000000000000000008152600401611fff90612f14565b60405180910390fd5b600061201261184b565b905061202181600087876124f2565b836001600082825461203391906131b6565b92505081905550836000808773ffffffffffffffffffffffffffffffffffffffff1673ffffffffffffffffffffffffffffffffffffffff168152602001908152602001600020600082825461208891906131b6565b925050819055506120a0816000878787876001611db7565b8473ffffffffffffffffffffffffffffffffffffffff168173ffffffffffffffffffffffffffffffffffffffff167f2fe5be0146f74c5bce36c0b80911af6c7d86ff27e89d5cfa61fc681327954e5d8686866040516121019392919061308f565b60405180910390a38473ffffffffffffffffffffffffffffffffffffffff16600073ffffffffffffffffffffffffffffffffffffffff167fddf252ad1be2c89b69c2b068fc378daa952ba7f163c4a11628f55a4df523b3ef866040516121679190613074565b60405180910390a35050505050565b600073ffffffffffffffffffffffffffffffffffffffff168673ffffffffffffffffffffffffffffffffffffffff1614156121e6576040517f08c379a00000000000000000000000000000000000000000000000000000000081526004016121dd90612e54565b60405180910390fd5b600073ffffffffffffffffffffffffffffffffffffffff168573ffffffffffffffffffffffffffffffffffffffff161415612256576040517f08c379a000000000000000000000000000000000000000000000000000000000815260040161224d90613034565b60405180910390fd5b600061226061184b565b9050612270818888888888611a1e565b61227e818888888888611b94565b61228d81888888888888611db7565b50505050505050565b600073ffffffffffffffffffffffffffffffffffffffff168473ffffffffffffffffffffffffffffffffffffffff161415612306576040517f08c379a00000000000000000000000000000000000000000000000000000000081526004016122fd90612eb4565b60405180910390fd5b600061231061184b565b905061232181866000878787611a1e565b61232e81866000876124f2565b60008060008773ffffffffffffffffffffffffffffffffffffffff1673ffffffffffffffffffffffffffffffffffffffff168152602001908152602001600020549050848110156123b4576040517f08c379a00000000000000000000000000000000000000000000000000000000081526004016123ab90613014565b60405180910390fd5b84816123c0919061320c565b6000808873ffffffffffffffffffffffffffffffffffffffff1673ffffffffffffffffffffffffffffffffffffffff168152602001908152602001600020819055508460016000828254612414919061320c565b925050819055508573ffffffffffffffffffffffffffffffffffffffff168273ffffffffffffffffffffffffffffffffffffffff167fa78a9be3a7b862d26933ad85fb11d80ef66b8f972d7cbba06621d583943a409887878760405161247c9392919061308f565b60405180910390a3600073ffffffffffffffffffffffffffffffffffffffff168673ffffffffffffffffffffffffffffffffffffffff167fddf252ad1be2c89b69c2b068fc378daa952ba7f163c4a11628f55a4df523b3ef876040516124e29190613074565b60405180910390a3505050505050565b50505050565b600080823b905060008111915050919050565b600061251e61251984613114565b6130ef565b90508281526020810184848401111561253657600080fd5b61254184828561329f565b509392505050565b6000813590506125588161394d565b92915050565b60008151905061256d8161394d565b92915050565b600082601f83011261258457600080fd5b813561259484826020860161250b565b91505092915050565b6000813590506125ac81613964565b92915050565b6000815190506125c181613964565b92915050565b6000602082840312156125d957600080fd5b60006125e784828501612549565b91505092915050565b60006020828403121561260257600080fd5b60006126108482850161255e565b91505092915050565b6000806040838503121561262c57600080fd5b600061263a85828601612549565b925050602061264b85828601612549565b9150509250929050565b60008060006060848603121561266a57600080fd5b600061267886828701612549565b935050602061268986828701612549565b925050604061269a8682870161259d565b9150509250925092565b600080600080600060a086880312156126bc57600080fd5b60006126ca88828901612549565b95505060206126db88828901612549565b94505060406126ec8882890161259d565b935050606086013567ffffffffffffffff81111561270957600080fd5b61271588828901612573565b925050608086013567ffffffffffffffff81111561273257600080fd5b61273e88828901612573565b9150509295509295909350565b6000806040838503121561275e57600080fd5b600061276c85828601612549565b925050602061277d8582860161259d565b9150509250929050565b60008060006060848603121561279c57600080fd5b60006127aa86828701612549565b93505060206127bb8682870161259d565b925050604084013567ffffffffffffffff8111156127d857600080fd5b6127e486828701612573565b9150509250925092565b6000806000806080858703121561280457600080fd5b600061281287828801612549565b94505060206128238782880161259d565b935050604085013567ffffffffffffffff81111561284057600080fd5b61284c87828801612573565b925050606085013567ffffffffffffffff81111561286957600080fd5b61287587828801612573565b91505092959194509250565b60006020828403121561289357600080fd5b60006128a18482850161259d565b91505092915050565b6000602082840312156128bc57600080fd5b60006128ca848285016125b2565b91505092915050565b600080604083850312156128e657600080fd5b60006128f48582860161259d565b925050602083013567ffffffffffffffff81111561291157600080fd5b61291d85828601612573565b9150509250929050565b6000612933838361293f565b60208301905092915050565b61294881613240565b82525050565b61295781613240565b82525050565b600061296882613155565b6129728185613183565b935061297d83613145565b8060005b838110156129ae5781516129958882612927565b97506129a083613176565b925050600181019050612981565b5085935050505092915050565b6129c481613252565b82525050565b6129d38161325e565b82525050565b60006129e482613160565b6129ee8185613194565b93506129fe8185602086016132ae565b612a07816133d1565b840191505092915050565b6000612a1d8261316b565b612a2781856131a5565b9350612a378185602086016132ae565b612a40816133d1565b840191505092915050565b6000612a586014836131a5565b9150612a63826133e2565b602082019050919050565b6000612a7b6025836131a5565b9150612a868261340b565b604082019050919050565b6000612a9e6022836131a5565b9150612aa98261345a565b604082019050919050565b6000612ac16027836131a5565b9150612acc826134a9565b604082019050919050565b6000612ae46026836131a5565b9150612aef826134f8565b604082019050919050565b6000612b076022836131a5565b9150612b1282613547565b604082019050919050565b6000612b2a6024836131a5565b9150612b3582613596565b604082019050919050565b6000612b4d6021836131a5565b9150612b58826135e5565b604082019050919050565b6000612b706020836131a5565b9150612b7b82613634565b602082019050919050565b6000612b936021836131a5565b9150612b9e8261365d565b604082019050919050565b6000612bb66020836131a5565b9150612bc1826136ac565b602082019050919050565b6000612bd9604d836131a5565b9150612be4826136d5565b606082019050919050565b6000612bfc6024836131a5565b9150612c078261374a565b604082019050919050565b6000612c1f602c836131a5565b9150612c2a82613799565b604082019050919050565b6000612c426029836131a5565b9150612c4d826137e8565b604082019050919050565b6000612c656026836131a5565b9150612c7082613837565b604082019050919050565b6000612c886023836131a5565b9150612c9382613886565b604082019050919050565b6000612cab6020836131a5565b9150612cb6826138d5565b602082019050919050565b6000612cce6023836131a5565b9150612cd9826138fe565b604082019050919050565b612ced81613288565b82525050565b612cfc81613292565b82525050565b6000602082019050612d17600083018461294e565b92915050565b600060c082019050612d32600083018961294e565b612d3f602083018861294e565b612d4c604083018761294e565b612d596060830186612ce4565b8181036080830152612d6b81856129d9565b905081810360a0830152612d7f81846129d9565b9050979650505050505050565b6000604082019050612da1600083018561294e565b612dae60208301846129ca565b9392505050565b60006020820190508181036000830152612dcf818461295d565b905092915050565b6000602082019050612dec60008301846129bb565b92915050565b60006020820190508181036000830152612e0c8184612a12565b905092915050565b60006020820190508181036000830152612e2d81612a4b565b9050919050565b60006020820190508181036000830152612e4d81612a6e565b9050919050565b60006020820190508181036000830152612e6d81612a91565b9050919050565b60006020820190508181036000830152612e8d81612ab4565b9050919050565b60006020820190508181036000830152612ead81612ad7565b9050919050565b60006020820190508181036000830152612ecd81612afa565b9050919050565b60006020820190508181036000830152612eed81612b1d565b9050919050565b60006020820190508181036000830152612f0d81612b40565b9050919050565b60006020820190508181036000830152612f2d81612b63565b9050919050565b60006020820190508181036000830152612f4d81612b86565b9050919050565b60006020820190508181036000830152612f6d81612ba9565b9050919050565b60006020820190508181036000830152612f8d81612bcc565b9050919050565b60006020820190508181036000830152612fad81612bef565b9050919050565b60006020820190508181036000830152612fcd81612c12565b9050919050565b60006020820190508181036000830152612fed81612c35565b9050919050565b6000602082019050818103600083015261300d81612c58565b9050919050565b6000602082019050818103600083015261302d81612c7b565b9050919050565b6000602082019050818103600083015261304d81612c9e565b9050919050565b6000602082019050818103600083015261306d81612cc1565b9050919050565b60006020820190506130896000830184612ce4565b92915050565b60006060820190506130a46000830186612ce4565b81810360208301526130b681856129d9565b905081810360408301526130ca81846129d9565b9050949350505050565b60006020820190506130e96000830184612cf3565b92915050565b60006130f961310a565b90506131058282613313565b919050565b6000604051905090565b600067ffffffffffffffff82111561312f5761312e6133a2565b5b613138826133d1565b9050602081019050919050565b6000819050602082019050919050565b600081519050919050565b600081519050919050565b600081519050919050565b6000602082019050919050565b600082825260208201905092915050565b600082825260208201905092915050565b600082825260208201905092915050565b60006131c182613288565b91506131cc83613288565b9250827fffffffffffffffffffffffffffffffffffffffffffffffffffffffffffffffff0382111561320157613200613344565b5b828201905092915050565b600061321782613288565b915061322283613288565b92508282101561323557613234613344565b5b828203905092915050565b600061324b82613268565b9050919050565b60008115159050919050565b6000819050919050565b600073ffffffffffffffffffffffffffffffffffffffff82169050919050565b6000819050919050565b600060ff82169050919050565b82818337600083830152505050565b60005b838110156132cc5780820151818401526020810190506132b1565b838111156132db576000848401525b50505050565b600060028204905060018216806132f957607f821691505b6020821081141561330d5761330c613373565b5b50919050565b61331c826133d1565b810181811067ffffffffffffffff8211171561333b5761333a6133a2565b5b80604052505050565b7f4e487b7100000000000000000000000000000000000000000000000000000000600052601160045260246000fd5b7f4e487b7100000000000000000000000000000000000000000000000000000000600052602260045260246000fd5b7f4e487b7100000000000000000000000000000000000000000000000000000000600052604160045260246000fd5b6000601f19601f8301169050919050565b7f4d757374206861766520436865656d73636f696e000000000000000000000000600082015250565b7f4552433737373a20617070726f76652066726f6d20746865207a65726f20616460008201527f6472657373000000000000000000000000000000000000000000000000000000602082015250565b7f4552433737373a2073656e642066726f6d20746865207a65726f20616464726560008201527f7373000000000000000000000000000000000000000000000000000000000000602082015250565b7f4552433737373a207472616e7366657220616d6f756e7420657863656564732060008201527f62616c616e636500000000000000000000000000000000000000000000000000602082015250565b7f4f776e61626c653a206e6577206f776e657220697320746865207a65726f206160008201527f6464726573730000000000000000000000000000000000000000000000000000602082015250565b7f4552433737373a206275726e2066726f6d20746865207a65726f20616464726560008201527f7373000000000000000000000000000000000000000000000000000000000000602082015250565b7f4552433737373a20617574686f72697a696e672073656c66206173206f70657260008201527f61746f7200000000000000000000000000000000000000000000000000000000602082015250565b7f4552433737373a207265766f6b696e672073656c66206173206f70657261746f60008201527f7200000000000000000000000000000000000000000000000000000000000000602082015250565b7f4552433737373a206d696e7420746f20746865207a65726f2061646472657373600082015250565b7f4f6e6c7920416d61636c69636b657220636f6e74726163742063616e206d696e60008201527f7400000000000000000000000000000000000000000000000000000000000000602082015250565b7f4f776e61626c653a2063616c6c6572206973206e6f7420746865206f776e6572600082015250565b7f4552433737373a20746f6b656e20726563697069656e7420636f6e747261637460008201527f20686173206e6f20696d706c656d656e74657220666f7220455243373737546f60208201527f6b656e73526563697069656e7400000000000000000000000000000000000000604082015250565b7f4552433737373a207472616e7366657220746f20746865207a65726f2061646460008201527f7265737300000000000000000000000000000000000000000000000000000000602082015250565b7f4552433737373a2063616c6c6572206973206e6f7420616e206f70657261746f60008201527f7220666f7220686f6c6465720000000000000000000000000000000000000000602082015250565b7f4552433737373a207472616e7366657220616d6f756e7420657863656564732060008201527f616c6c6f77616e63650000000000000000000000000000000000000000000000602082015250565b7f4552433737373a207472616e736665722066726f6d20746865207a65726f206160008201527f6464726573730000000000000000000000000000000000000000000000000000602082015250565b7f4552433737373a206275726e20616d6f756e7420657863656564732062616c6160008201527f6e63650000000000000000000000000000000000000000000000000000000000602082015250565b7f4552433737373a2073656e6420746f20746865207a65726f2061646472657373600082015250565b7f4552433737373a20617070726f766520746f20746865207a65726f206164647260008201527f6573730000000000000000000000000000000000000000000000000000000000602082015250565b61395681613240565b811461396157600080fd5b50565b61396d81613288565b811461397857600080fd5b5056fea26469706673582212205903bf19812612b3dfdb4fb79830c5413995e7428b9fd86af083d16313f4499064736f6c63430008030033",
  "immutableReferences": {},
  "source": "// SPDX-License-Identifier: GPL-3.0-or-later\npragma solidity ^0.8.3;\n\nimport \"./Amacoin.sol\";\nimport \"./Structs.sol\";\n\ncontract Amaclicker {\n  Amacoin public amacoin;\n\n  // User info\n  mapping(address => uint256) public clickRewards;\n  mapping(address => uint256[]) upgrades;\n  mapping(address => boughtInvestment[]) investments;\n  mapping(address => bool[]) skins;\n\n  // TODO: Finish these\n  // Items info\n  upgrade[] public upgradesInfo;\n  investment[] public investmentsInfo;\n  uint256[] public skinsInfo = [0, 1000 * 10**18, 10000 * 10**18];\n\n  // TODO: Make this in memory instead\n  address[] private defaultOperators;\n\n  constructor(IERC20 cheemscoin) {\n    defaultOperators.push(address(this));\n    amacoin = new Amacoin(defaultOperators, cheemscoin);\n    delete defaultOperators;\n    amacoin.transferOwnership(msg.sender);\n\n    // Initialise items info\n    upgradesInfo.push(upgrade(19.99 * 10**18, 0.1 * 10**18));\n    upgradesInfo.push(upgrade(1000 * 10**18, 10 * 10**18));\n    investmentsInfo.push(investment(10 * 10**18, 40 * 10**18, 72));\n  }\n\n  // TODO: require caller to own cheemscoin\n  function click() external {\n    amacoin.mint(msg.sender, clickRewards[msg.sender] + 10**18);\n  }\n\n  modifier purchase(uint256 cost) {\n    require(amacoin.balanceOf(msg.sender) >= cost, \"Not enough amacoins\");\n    _;\n    amacoin.operatorBurn(msg.sender, cost, \"\", \"\");\n  }\n\n  function buyUpgrade(uint256 upgradeIndex) external purchase(upgradesInfo[upgradeIndex].cost) {\n    upgrade memory up = upgradesInfo[upgradeIndex];\n\n    upgrades[msg.sender][upgradeIndex] += 1;\n    clickRewards[msg.sender] += up.boost;\n  }\n\n  function buyInvestment(uint256 investmentIndex)\n    external\n    purchase(investmentsInfo[investmentIndex].cost)\n  {\n    investments[msg.sender].push(\n      boughtInvestment(block.number + investmentsInfo[investmentIndex].time, investmentIndex)\n    );\n  }\n\n  function buySkin(uint256 skindex) external purchase(skinsInfo[skindex]) {\n    skins[msg.sender][skindex] = true;\n  }\n\n  // boughtInvestments\n  function redeem(uint256 index) external {\n    boughtInvestment memory inv = investments[msg.sender][index];\n    require(block.number >= inv.redeemBlock, \"Investment not matured\");\n\n    amacoin.mint(msg.sender, investmentsInfo[inv.id].reward);\n    delete investments[msg.sender][index];\n  }\n}\n",
  "sourcePath": "/Users/kaikurosawa/Desktop/code/amaclicker/contracts/Amaclicker.sol",
  "compiler": {
    "name": "solc",
    "version": "0.8.3+commit.8d00100c.Emscripten.clang"
  },
  "schemaVersion": "3.3.3",
  "updatedAt": "2021-04-02T12:22:35.724Z",
  "devdoc": {
    "kind": "dev",
    "methods": {},
    "version": 1
  },
  "userdoc": {
    "kind": "user",
    "methods": {},
    "version": 1
  }
}